:04000000803117280C
:100008007E1480314E01161A0C1E0E288031CB202A
:10001800803115280B1B971E15288D1E1528803139
:1000280068207E10090080311928F401F501F601D5
:10003800F7017E1040018031BB28400198019901E9
:100048009A013B309200F0309300FF309400333037
:100058007E01B800F030C300FF30CE00B901C40102
:10006800CF01BA01C501D0013730BB00F030C6005E
:10007800FF30D1003F30BC00F030C700FF30D20065
:10008800BD01BE01BF01C801C901CA01D301D40124
:10009800D501080044018F019001063091000B3012
:1000A8008D00DB308C000D08F7000C08F600B4302A
:1000B800FA000030FB008031C1204E018D129716E6
:1000C800313044018E0008008D127708F900760857
:1000D800F80080317A208031700871040319080013
:1000E80071088A0070080A008031080044010E1D5A
:1000F80084280E1079088D0078088C000E140800EA
:1001080079088D0078088C0008004E3400340034DB
:1001180000340034003400340034C1340034003476
:1001280000348031AB208031803121208031803112
:100138004E2080318031A12008004E010C100B1494
:100148000030FA000030FB008031C6200800203063
:1001580051018E00403091009301900192010800F6
:100168004001121DB928121108001215080080312B
:10017800952080318B170B17C0287B08F1007A086F
:10018800F00008007B08F3007A08F2000800080075
:020000040001F9
:04000E00ED3FE73F9C
:04001400FF3FFF3F6C
:00000001FF
