:020000040000FA
:040000008031102813
:100008007E1480310B1F0E284E01971A8D1E0E2864
:1000180080316D207E100900803112287E10400149
:1000280015281A2080318B170B17192826208031A4
:1000380021208031652080314928510191019301A7
:1000480092010800980199019A013B309200F03022
:100058009300FF3094007E01CE00F030C3003730AB
:10006800B800C401B901CF010430BA00C501D001FC
:100078003730BB00F030C600FF30D1003F30BC0045
:10008800F030C700FF30D200080044018F01900112
:10009800063091000B308D00DC308C004E018D1243
:1000A80044010D08F300F2010C08F2044E01971602
:1000B8008D30F6000030F7006820313044018E00A2
:1000C800080050018C0108007708F1007608F0005C
:1000D80008008D127308F5007208F4007E20803144
:1000E800700871040319080071088A0070080A0072
:1000F8008031080044010E1D88280E1075088D00F7
:1001080074088C000E14080075088D0074088C00A3
:1001180008004001121D922812110800121508004B
:020000040001F9
:04000E00ED3FE73F9C
:04001400FF3FFF3F6C
:00000001FF
