:020000040000FA
:040000008031102813
:100008007E1480310B1F0E284E01971A8D1E0E2864
:10001800803156207E100900803112287E10400160
:1000280080318A28980199019A013B309200F0307A
:100038009300FF309400FF307E01CE00F030C30003
:100048003730B800C401B901CF010430BA00C50186
:10005800D0013730BB00F030C600FF30D1003F3050
:10006800BC00F030C700FF30D200080044018F0107
:100078009001063091000B308D00DC308C004E0171
:100088008D1244010D08F3000C08F2004E0197167A
:100098008330F6000030F700803190203130440181
:1000A8008E0008008D127308F5007208F400803184
:1000B80068208031700871040319080071088A00EB
:1000C80070080A008031080044010E1D72280E10C5
:1000D80075088D0074088C000E14080075088D00D2
:1000E80074088C00080080311620803180319520FA
:1000F800803180319A20803180313A2008004001D7
:10010800121D882812110800121508008031772066
:1001180080318B170B178F287708F1007608F000CD
:1001280008005101910193019201080050018C01CE
:020138000800BD
:020000040001F9
:04000E00ED3FE73F9C
:04001400FF3FFF3F6C
:00000001FF
