:0400000080312528FE
:100008007E1480314E01161E0A280B2813280C1E58
:100018000E280F2813288031E520803123280B1F54
:10002800162817282328971E1A281B2823288D1ED0
:100038001E281F28232880317720803123287E100E
:10004800090080312728F401F501F601F7017E1037
:1000580040018031D3284001980199019A013B3031
:100068009200F0309300FF30940033307E01B800E6
:10007800F030C300FF30CE00B901C401CF01BA018E
:10008800C501D0013730BB00F030C600FF30D100C9
:100098003F30BC00F030C700FF30D200BD01BE01C8
:1000A800BF01C801C901CA01D301D401D5010800A3
:1000B80044018F019001063091000B308D00DB3038
:1000C8008C000D08F7000C08F600CA30FA00003062
:1000D800FB008031DB2080314E018D1297163130C4
:1000E80044018E0008004E018D127708F900760849
:1000F800F80080318C20803170087104031985283C
:1001080086288B2871088A0070080A008031080048
:1001180044010E1D9028912898280E1079088D000A
:1001280078088C000E149C2879088D0078088C00BB
:1001380008008031C120803180312F20803180310A
:100148005C2080318031B620803108005C34003476
:10015800003400340034003400340034DB3400341C
:10016800003400344E010C100B140030FA0000303B
:10017800FB008031E02080310800203051018E00E2
:100188004030910093019001920108004001121D36
:10019800CE28CF28D1281211D22812150800803174
:1001A8009D2080318B170B17D828803125287B0894
:1001B800F1007A08F00008007B08F3007A08F200E2
:0401C8000800080023
:020000040001F9
:04000E00ED3FE73F9C
:04001400FF3FFF3F6C
:00000001FF
