:020000040000FA
:04000000803118280B
:100008007E1480310B1F09280A2816284E01971ED6
:100018000E280F2816288D1E12281328162880311E
:10002800602080317E10090080311A287E1040013E
:1000380080319C284001980199019A013B30920037
:10004800F0309300FF309400FF307E01CE00F03096
:10005800C3003730B800C401B901CF010430BA0079
:10006800C501D0013730BB00F030C600FF30D100E9
:100078003F30BC00F030C700FF30D2000800440118
:100088008F019001063091000B308D00DC308C0020
:100098004E018D1244010D08F3000C08F2004E01C8
:1000A80097169330F6000030F7008031A420803195
:1000B800313044018E0008004E018D127308F5009E
:1000C8007208F400803175208031700871040319BA
:1000D8006E286F28742871088A0070080A00803119
:1000E800080044010E1D79287A2881280E10750809
:1000F8008D0074088C000E14852875088D0074080E
:100108008C00080080311E2080318031A920803188
:100118008031AE2080318031432080310800400199
:10012800121D972898289A2812119B281215080042
:100138008031862080318B170B17A1288031182831
:100148007708F1007608F000080051019101930149
:0A0158009201080050018C0108001C
:020000040001F9
:04000E00ED3FE73F9C
:04001400FF3FFF3F6C
:00000001FF
