:020000040000FA
:04000000803118280B
:100008007E1480310B1F09280A2816284E01971ED6
:100018000E280F2816288D1E12281328162880311E
:100028006B2080317E10090080311A28FA01FB010B
:100038007E1040018031BD284001980199019A0144
:100048003B309200F0309300FF3094007E01B801FD
:10005800C301CE01B901C401CF010430BA00C50102
:10006800D0013730BB00F030C600FF30D1003F3040
:10007800BC00F030C700FF30D200BD01BE01BF0197
:10008800C801C901CA01D301D401D501080044013E
:100098008F019001063091000B308D00DC308C0010
:1000A8004E018D1244010D08F3000C08F2004E01B8
:1000B8009716B430F8000030F9008031CD20803137
:1000C8004E018E129816313044018E0008004E0100
:1000D8008D127308F7007208F60080318020803195
:1000E80070087104031979287A287F2871088A0012
:1000F80070080A008031080044010E1D84288528F4
:100108008C280E1077088D0076088C000E14902825
:1001180077088D0076088C0008008031C520803172
:100128008031AA20803180314B20803180312020DD
:10013800803108004B34003400340034003400347B
:1001480080340034CD340034003400344E010C10B7
:100158000030F8000030F9008031D22080310800EA
:100168004001121DB828B928BB281211BC28121545
:1001780008008031912080318B170B17C2288031FD
:100188001828203051018E009101930190019201AD
:1001980008007908F1007808F00008007908F500EF
:0601A8007808F4000800D5
:020000040001F9
:04000E00ED3FE73F9C
:04001400FF3FFF3F6C
:00000001FF
